:020000040800F2
:1000000070170020E9020008F1020008F30200085E
:10001000F5020008F7020008F902000800000000DD
:10002000000000000000000000000000FB020008CB
:10003000FD02000800000000FF02000801030008A4
:100040000303000803030008030300080303000878
:100050000303000803030008030300080303000868
:100060000303000803030008030300080303000858
:100070000303000803030008030300080303000848
:100080000303000803030008030300080303000838
:100090000303000803030008030300080303000828
:1000A0000303000803030008030300080303000818
:1000B0000303000803030008030300080303000808
:1000C00003030008030300080303000803030008F8
:1000D00003030008030300080303000803030008E8
:1000E00003030008030300080303000803030008D8
:1000F00003030008030300080303000803030008C8
:1001000003030008030300080303000803030008B7
:1001100003030008030300080303000803030008A7
:100120000303000803030008030300080303000897
:100130000303000803030008030300080303000887
:100140000303000803030008030300080303000877
:100150000303000803030008030300080303000867
:100160000303000803030008030300080303000857
:100170000303000803030008030300080303000847
:10018000030300080303000800F002F800F03CF845
:100190000AA090E8000C82448344AAF10107DA45E2
:1001A00001D100F031F8AFF2090EBAE80F0013F0F8
:1001B000010F18BFFB1A43F001031847800C000021
:1001C000A00C0000103A24BF78C878C1FAD85207B2
:1001D00024BF30C830C144BF04680C6070470000C1
:1001E0000023002400250026103A28BF78C1FBD840
:1001F000520728BF30C148BF0B6070471FB500F0E1
:1002000017FE1FBD10B510BD00F091F81146FFF7A5
:10021000F5FF00F09DF900F0AFF803B4FFF7F2FF2F
:1002200003BC00F0B3F800002C4B19680868B0E874
:10023000F04F80F30988BFF36F8F4FF0000080F319
:10024000118870470000000008480068006880F3CB
:1002500008884FF0000080F3148862B661B6BFF3DF
:100260004F8FBFF36F8F00DF00BF00BF08ED00E0CE
:10027000DFF80C00016841F470010160704700BFB5
:1002800088ED00E0EFF30980BFF36F8F134B1A681E
:100290001EF0100F08BF20ED108A20E9F04F10600B
:1002A00009B44FF0BF0080F31188BFF34F8FBFF345
:1002B0006F8F00F037FC4FF0000080F3118809BC0D
:1002C00019680868B0E8F04F1EF0100F08BFB0ECD6
:1002D000108A80F30988BFF36F8F70470C000020ED
:1002E000EFF3058070470000094880470948004740
:1002F000FEE7FEE7FEE7FEE7FEE7FEE7FEE7FEE7D6
:10030000FEE7FEE704480549054A064B7047000032
:10031000E90400088901000870110020701700200E
:1003200070130020701300207047704770477546A7
:1003300000F028F8AE4605006946534620F0070055
:10034000854618B020B5FFF7DDFFBDE820404FF02F
:1003500000064FF000074FF000084FF0000B21F0AF
:100360000701AC46ACE8C009ACE8C009ACE8C0097C
:10037000ACE8C0098D4670470446AFF300802046C4
:10038000FFF74BFF0048704710110020014918206B
:10039000ABBEFEE72600020070470000154800686B
:1003A00040F00800134908601348006840F04040DE
:1003B0001149086010480838006840F080400E4934
:1003C000083908600C48006840F040600A4908603D
:1003D00009480838006840F080600749083908601B
:1003E00005481030008840F400400349103108806F
:1003F0007047000030380240080C02400CB5002065
:10040000019000903448006840F480303249086020
:1004100000BF3148006800F4003000900198401C93
:100420000190009818B90198B0F5A06FF1D12A4851
:10043000006800F4003010B10120009001E00020BD
:1004400000900098012846D123484030006840F0D1
:1004500080502149403108602048006840F48040C5
:100460001E4908601C48083000681B4908310860B4
:100470000846006840F4004008600846006840F400
:10048000A05008601648091F0860081F006840F067
:100490008070091F086000BF0F48006800F00070FE
:1004A0000028F9D040F205600E4908600A4808307B
:1004B000006820F003000849083108600846006819
:1004C00040F00200086000BF03480830006800F0F8
:1004D0000C000828F8D10CBD003802400070004024
:1004E00019544007003C024010B51548006840F41C
:1004F0007000134908601348006840F0010011497A
:10050000086000200F49083108600E4800680E4955
:1005100008400C4908600D48091D0860081F006864
:1005200020F48020091F0860002006490C31086073
:10053000FFF764FF4FF0006001498039086010BD8B
:1005400088ED00E000380240FFFFF6FE1030002486
:100550001CB5FFF723FF0020042103462022CDE92C
:1005600000100CA10D4800F031FB002004210346CF
:100570002022CDE900100AA10B4800F027FB00F073
:1005800097FA05E00948008840F4005007490880C0
:10059000F8E700004C45443100000000790A0008EB
:1005A0004C45443200000000950A0008180C024037
:1005B0002DE9F04105460E461C4807681C480068B6
:1005C000001D00F0C5F950B91948006890F82C10CA
:1005D0000120884017490968814316480160681C5A
:1005E00038B936B112480168091D134800F0EEF918
:1005F0001AE07C190E4800684460BC4207D20C48DF
:100600000168091D0D48006800F0C6F90CE00848B3
:100610000168091D0A48006800F0BEF90948006831
:10062000844201D207480460BDE8F0812000002028
:100630000C00002024000020D41000201400002012
:10064000100000203C00002010B5044600F0CAF95C
:1006500023480068401C224908602248006840B9CD
:10066000204804600846006801280DD100F0C8F851
:100670000AE01D48006838B91A480068C06AE16A93
:10068000884201D81748046018480068401C174980
:10069000086094F82C100120884015490968084327
:1006A00013490860E16A01EB8101124A02EB810003
:1006B000211D00F08BF900F0A7F90B48006868B124
:1006C00008480068C06AE16A884207D24FF080504B
:1006D00009490860BFF34F8FBFF36F8F10BD000053
:1006E0001C0000200C000020280000203800002002
:1006F000240000204810002004ED00E010B516E0B2
:1007000000F070F90C48C068C468201D00F020F9A2
:100710000A480068401E0949086009480068401EF0
:100720000749086000F070F9204600F00BF8044813
:1007300000680028E4D110BDC01000201C0000207B
:100740001800002010B50446206B00F06DF920461B
:1007500000F06AF910BD000000BFFFF7CFFF0648A8
:1007600000680128F9D94FF0805004490860BFF3B0
:100770004F8FBFF36F8FF0E74810002004ED00E0CB
:100780002DE9FF5F80460E469146DDE90E7A109C0A
:10079000A9F10100216B01EB800B2BF0070B002569
:1007A00007E0715D04F134004155705D00B902E06D
:1007B0006D1C102DF5D300BF002143200155052FDE
:1007C00000D30427E762201D00F0E3F804F11800CD
:1007D00000F0DFF82461C7F10500A0616462002029
:1007E000606484F8480041465846039A00F09AF83D
:1007F0002060BAF1000F01D0CAF80040BDE8FF9FA9
:1008000010B5002407E004EB84010F4A02EB8100DD
:1008100000F0B2F8641C052CF5D30C4800F0ACF8DD
:100820000B4800F0A9F80B4800F0A6F80A4800F0C1
:10083000A3F80A4800F0A0F80448094908600448F1
:100840000849086010BD000048100020E810002092
:10085000FC100020AC100020C0100020D41000209C
:1008600010000020140000200A490968096809B92D
:10087000012100E0002121B14FF0FF31064A116053
:1008800006E004490968C968C868034A41681160FC
:1008900070470000100000203C00002000BFBF2077
:1008A00080F31188BFF34F8FBFF36F8F00BF00BF7E
:1008B000FEE7000070B50446002504F0070020B1F3
:1008C00004F00700C0F10800044400F023F91248C6
:1008D000006820B9114820F007000F49086010484F
:1008E0000068204440F6F871884210D20C48006835
:1008F00020440B490968884209D90748006808491B
:10090000096845180648006820440549086000F059
:100910001BFA284670BD0000040000205000002093
:1009200000000020001F4FF080730360001F21F0C3
:1009300001030360001F054B036014380260001FB1
:100940006FF0020303602038704700009D08000824
:1009500001460A69D1E901309860D1E90103586084
:100960005068884201D18868506000200861106892
:10097000401E10601068704700F1080141604FF0A0
:10098000FF31816000F10801C16001610021016057
:10099000704700210161704710B502460B685C1C6E
:1009A0000CB9106907E002F1080000E040684468F3
:1009B00024689C42FAD944684C604C68A160886005
:1009C00041600A611468641C146010BD42684A608A
:1009D00093688B60936859609160086103685B1C41
:1009E0000360704700BFBF2080F31188BFF34F8FB3
:1009F000BFF36F8F00BF03480068401C01490860C7
:100A0000704700000800002006480068401E0549A5
:100A100008600846006820B9002080F3118800BFF4
:100A200000BF7047080000207047000000204FF012
:100A3000E021086188610248486107200861704729
:100A40003F19010070B50446002544B100F062F87A
:100A500000212046FFF7ACFD00F076F905463DB9D0
:100A60004FF0805003490860BFF34F8FBFF36F8F83
:100A700070BD000004ED00E009E00548008840F486
:100A80000040034908804FF47A70FFF7DBFFF4E77A
:100A9000180C024008E00548008840F40050034963
:100AA00008806420FFF7CEFFF5E70000180C024035
:100AB0001CB5114800210B462022CDE900100FA1E2
:100AC000104800F083F80446012C14D100BFBF2069
:100AD00080F31188BFF34F8FBFF36F8F00BF4FF0CC
:100AE000FF300949086001200849086000200849D2
:100AF000086000F047F81CBD4000002049444C4508
:100B000000000000590700083C00002028000020D9
:100B10002000002002480068401C0149086070471E
:100B2000440000201248006818B1012011490860F3
:100B30001DE000200F4908600F480068B0FA80F0FF
:100B4000C0F11F0101EB81020C4B03EB82004268F4
:100B50005268426000F108024368934202D1426841
:100B6000526842604268D268054B1A6000BF704705
:100B70004400002030000020240000204810002005
:100B80000C00002010B50E48006840F47F000C49AE
:100B900008600846006840F07F400860FFF746FFA5
:100BA000002008490860FFF763FB0748006840F031
:100BB000404005490860FFF747FB002010BD0000DA
:100BC00020ED00E00800002034EF00E02DE9FF4FA9
:100BD00085B0804689461746DDE912ABB800FFF7BD
:100BE00069FE064656B14C20FFF764FE04460CB180
:100BF000266304E03046FFF717FF00E000247CB1D5
:100C00000020CDE900ABCDE902403A4649464046D6
:100C1000089BFFF7B5FD2046FFF716FD012501E013
:100C20004FF0FF35284609B0BDE8F08F2DE9F041BF
:100C300000273A480068002863D139480068451CFD
:100C4000374805608DB93748D0F8008036480068CD
:100C5000344908603448C0F8008034480068401CBB
:100C600032490860FFF700FE00BF31480068854246
:100C70003BD300BF2B480068006808B9012000E0A2
:100C8000002020B14FF0FF30294908602CE02548B2
:100C90000068C068C4686668B54202D2244806602D
:100CA00022E0201DFFF754FEA06A18B104F11800DD
:100CB000FFF74EFE94F82C10012088401D4909686A
:100CC00008431C490860E16A01EB81011A4A02EB02
:100CD0008100211DFFF77AFE1849E06A0968C96A98
:100CE0008842C7D30127C5E700BF14480068C06A1F
:100CF00000EB8000104951F82000012800D901279D
:100D000004E00F480068401C0D4908600D48006869
:100D100000B101273846BDE8F08100004400002002
:100D200020000020100000201400002034000020CB
:100D30003C00002024000020481000200C0000206F
:100D40002C0000203000002070B500240026FFF7A2
:100D500049FE2E480068401E2C490860084600687D
:100D600000284FD12A48006800284BD024E02948A9
:100D7000C068C46804F11800FFF7EAFD201DFFF702
:100D8000E7FD94F82C1001208840234909680843A6
:100D900021490860E16A01EB8101204A02EB8100F0
:100DA000211DFFF713FE1E49E06A0968C96A8842DF
:100DB00002D301201B4908601648006808B90120C9
:100DC00000E000200028D2D00CB1FFF74DFD1648FE
:100DD000056865B100BFFFF729FF10B10120114977
:100DE00008606D1E002DF6D100200F4908600D48E7
:100DF000006838B1012630070C490860BFF34F8FF7
:100E0000BFF36F8FFFF700FE304670BD4400002037
:100E10001C000020AC1000202400002048100020FE
:100E20000C000020300000202C00002004ED00E029
:100E30004FF04070E1EE100A704700005C0E0008B1
:100E40000000002048000000C4010008A40E0008B3
:100E50004800002028170000E00100080000000002
:100E600000000000AAAAAAAA0000000000000000DA
:100E70000000000000000000000000000000000072
:100E80000000000000000000000000000000000062
:100E90000000000000000000000000000000000052
:040EA000000000004E
:040000050800018965
:00000001FF
