:020000040800F2
:10000000B04B0020E9020008F1020008F3020008EA
:10001000F5020008F7020008F902000800000000DD
:10002000000000000000000000000000290200089D
:10003000FD02000800000000850200080506000817
:100040000303000803030008030300080303000878
:100050000303000803030008030300080303000868
:100060000303000803030008030300080303000858
:100070000303000803030008030300080303000848
:100080000303000803030008030300080303000838
:100090000303000803030008030300080303000828
:1000A0000303000803030008030300080303000818
:1000B0000303000803030008030300080303000808
:1000C00003030008030300080303000803030008F8
:1000D00003030008030300080303000803030008E8
:1000E00003030008030300080303000803030008D8
:1000F00003030008030300080303000803030008C8
:1001000003030008030300080303000803030008B7
:1001100003030008030300080303000803030008A7
:100120000303000803030008030300080303000897
:100130000303000803030008030300080303000887
:100140000303000803030008030300080303000877
:100150000303000803030008030300080303000867
:100160000303000803030008030300080303000857
:100170000303000803030008030300080303000847
:10018000030300080303000800F002F800F03CF845
:100190000AA090E8000C82448344AAF10107DA45E2
:1001A00001D100F031F8AFF2090EBAE80F0013F0F8
:1001B000010F18BFFB1A43F001031847101D000080
:1001C000301D0000103A24BF78C878C1FAD8520711
:1001D00024BF30C830C144BF04680C6070470000C1
:1001E0000023002400250026103A28BF78C1FBD840
:1001F000520728BF30C148BF0B6070471FB501F0E0
:1002000059FE1FBD10B510BD00F027F91146FFF7CC
:10021000F5FF00F0B3FA00F045F903B4FFF7F2FF81
:1002200003BC00F049F900002C4B19680868B0E8DD
:10023000F04F80F30988BFF36F8F4FF0000080F319
:10024000118870470000000008480068006880F3CB
:1002500008884FF0000080F3148862B661B6BFF3DF
:100260004F8FBFF36F8F00DF00BF00BF08ED00E0CE
:10027000DFF80C00016841F470010160704700BFB5
:1002800088ED00E0EFF30980BFF36F8F134B1A681E
:100290001EF0100F08BF20ED108A20E9F04F10600B
:1002A00009B44FF0BF0080F31188BFF34F8FBFF345
:1002B0006F8F01F0F1F94FF0000080F3118809BC55
:1002C00019680868B0E8F04F1EF0100F08BFB0ECD6
:1002D000108A80F30988BFF36F8F70470C000020ED
:1002E000EFF3058070470000094880470948004740
:1002F000FEE7FEE7FEE7FEE7FEE7FEE7FEE7FEE7D6
:10030000FEE7FEE704480549054A064B7047000032
:100310003906000889010008B0450020B04B0020D4
:10032000B0470020B047002010B5431C02E010F891
:10033000011B71B18107FAD14FF0013202C88C1A4A
:100340008C4314EAC211F9D0C01A0A0603D0C01EA9
:1003500010BDC01A10BD0A0401D0801E10BD0902D4
:10036000FCD0401E10BD032A40F2308010F0030C78
:1003700000F0158011F8013BBCF1020F624498BFF8
:1003800011F801CB00F8013B38BF11F8013BA2F195
:10039000040298BF00F801CB38BF00F8013B11F010
:1003A000030300F02880083AC0F0088051F8043BAD
:1003B000083A51F804CBA0E80810F5E7121D5CBF1D
:1003C00051F8043B40F8043BAFF30080D20724BF50
:1003D00011F8013B11F801CB48BF11F8012B24BFE4
:1003E00000F8013B00F801CB48BF00F8012B704733
:1003F00070477047704710B5203AC0F00B80B1E8E5
:100400001850203AA0E81850B1E81850A0E8185049
:10041000BFF4F5AF5FEA027C24BFB1E81850A0E852
:10042000185044BF18C918C0BDE810405FEA827C6C
:1004300024BF51F8043B40F8043B08BF7047D20783
:1004400028BF31F8023B48BF11F8012B28BF20F824
:10045000023B48BF00F8012B7047754600F028F8B2
:10046000AE4605006946534620F00700854618B0A1
:1004700020B5FFF747FFBDE820404FF000064FF0E2
:1004800000074FF000084FF0000B21F00701AC46C9
:10049000ACE8C009ACE8C009ACE8C009ACE8C009E8
:1004A0008D4670470446AFF300802046FFF7B5FE47
:1004B000004870475045002001491820ABBEFEE7B8
:1004C00026000200704700001148006840F0080054
:1004D0000F4908600F48006840F040400D4908602F
:1004E0000C480838006840F080400A490839086024
:1004F0000848006840F04060064908600548083830
:10050000006840F0806003490839086070470000C7
:1005100030380240080C02400CB5002001900090D9
:100520003448006840F480303249086000BF3148E8
:10053000006800F4003000900198401C0190009881
:1005400018B90198B0F5A06FF1D12A48006800F4FD
:10055000003010B10120009001E0002000900098D0
:10056000012846D123484030006840F0805021499E
:10057000403108602048006840F480401E4908600F
:100580001C48083000681B490831086008460068AC
:1005900040F4004008600846006840F4A05008603D
:1005A0001648091F0860081F006840F08070091F86
:1005B000086000BF0F48006800F000700028F9D004
:1005C00040F205600E4908600A480830006820F0D3
:1005D00003000849083108600846006840F002003E
:1005E000086000BF03480830006800F00C000828CD
:1005F000F8D10CBD0038024000700040195440078B
:10060000003C024010B500BFBF2080F31188BFF34B
:100610004F8FBFF36F8F00BF01F0B6FA18B14FF0E4
:1006200080500449086000BF002080F3118800BF9B
:1006300010BD000004ED00E010B51548006840F45E
:100640007000134908601348006840F00100114928
:10065000086000200F49083108600E4800680E4904
:1006600008400C4908600D48091D0860081F006813
:1006700020F48020091F0860002006490C31086022
:10068000FFF74AFF4FF0006001498039086010BD54
:1006900088ED00E000380240FFFFF6FE1030002435
:1006A00010B5014600203CE01F4B5B6923F00803B6
:1006B0001D4C6361002300E05B1C4CF25034A342EC
:1006C000FADB00F128039BB243F08003174CA381AF
:1006D00000BF164B1B8903F00103002BF9D0134B0D
:1006E0001B8903F08003002BF3D1104B9B89DAB2F6
:1006F0000E4B9A8100BF0D4B1B8903F00103002BA9
:10070000F9D00A4B1B8903F08003002BF3D1074B70
:100710009B890B54044B5B6943F00803024C6361F3
:10072000401C0628C0DB10BD001002400030014014
:100730002DE9F04104460D46271E00DA64420026EA
:1007400000BF0A2094FBF0F100FB11403030C2B230
:100750003046761C2A540A2094FBF0F0041EF0DC8C
:10076000002F03DA2D223046761C2A540020A8558B
:10077000284600F061FCBDE8F08100001CB5FFF7E1
:10078000A3FE00F009FE00F00FFD00200321034648
:100790002022CDE900100CA10D4801F0AFF9002096
:1007A000032103463C22CDE900100AA10B4801F0C9
:1007B000A5F900F031FF05E00948008840F4005039
:1007C00007490880F8E700004C454431000000006C
:1007D000711500084C45443200000000A1150008C6
:1007E000180C02402DE9F04105460E461C480768EA
:1007F0001C480068001D00F00FFE50B91948006841
:1008000090F82C1001208840174909688143164848
:100810000160681C38B936B112480168091D1348D7
:1008200000F038FE1AE07C190E4800684460BC42B3
:1008300007D20C480168091D0D48006800F010FE41
:100840000CE008480168091D0A48006800F008FE2D
:1008500009480068844201D207480460BDE8F0817D
:10086000200000200C00002024000020EC44002088
:1008700014000020100000203C00002010B50446A9
:1008800000F014FE23480068401C224908602248FA
:10089000006840B9204804600846006801280DD16E
:1008A00000F060F90AE01D48006838B91A4800688D
:1008B000C06AE16A884201D8174804601848006895
:1008C000401C1749086094F82C10012088401549F5
:1008D0000968084313490860E16A01EB8101124A83
:1008E00002EB8100211D00F0D5FD00F0F1FD0B4869
:1008F000006868B108480068C06AE16A884207D2A7
:100900004FF0805009490860BFF34F8FBFF36F8FDE
:1009100010BD00001C0000200C000020280000205A
:1009200038000020240000206044002004ED00E096
:1009300010B500F0BBFD0C48006890B90B4800F002
:100940007FFD0B4800F07CFD08480A490860084814
:100950000949086000220C21052000F0F1FE02493F
:10096000086000F0B5FD10BD5000002028450020B3
:100970003C450020480000204C00002010B516E047
:1009800000F094FD0C48C068C468201D00F044FDD0
:100990000A480068401E0949086009480068401E6E
:1009A0000749086000F094FD204600F055F804481F
:1009B00000680028E4D110BDD84400201C000020AD
:1009C0001800002070B504460D46206C70B1216CF3
:1009D000E0680144E160D4E90210884201D3216853
:1009E000E1602846226CE168FFF7BDFC70BD2DE98F
:1009F000F04104460F4615464FF00008A66B206CE8
:100A000028B37DB93946226C6068FFF7ACFC216CD5
:100A1000606808446060D4E90101884217D3206807
:100A2000606014E03946226CE068FFF79CFC216CA2
:100A3000E068411AE1602168E068884203D2216CD5
:100A4000A068411AE160022D01D106B1761E701C2A
:100A5000A0634046BDE8F08110B50446206B00F06D
:100A600047FD204600F044FD10BD00000146084A45
:100A7000126812680AB9012200E000220A600A68BE
:100A800022B9034A1268D268106800E0002070475B
:100A90004800002000BFFFF771FF064800680128EA
:100AA000F9D94FF0805004490860BFF34F8FBFF36E
:100AB0006F8FF0E76044002004ED00E02DE9F04185
:100AC00006460D4617469846069C0DB9246000E080
:100AD0002760E66325640121204600F04FFEBDE853
:100AE000F0812DE9FF5F80460E469146DDE90E7AE2
:100AF000109CA9F10100216B01EB800B2BF0070B7F
:100B0000002507E0715D04F134004155705D00B9C6
:100B100002E06D1C102DF5D300BF002143200155CC
:100B2000052F00D30427E762201D00F096FC04F196
:100B3000180000F092FC2461C7F10500A061646216
:100B40000020606484F8480041465846039A00F04B
:100B500045FA2060BAF1000F01D0CAF80040BDE8A4
:100B6000FF9F000010B5002407E004EB84010F4A4A
:100B700002EB810000F064FC641C052CF5D30C48EA
:100B800000F05EFC0B4800F05BFC0B4800F058FCEA
:100B90000A4800F055FC0A4800F052FC0448094994
:100BA000086004480849086010BD00006044002047
:100BB0000045002014450020C4440020D8440020F3
:100BC000EC44002010000020140000202DE9F0412A
:100BD00004460D4616461F464FF000086560246126
:100BE000B5420CD8F01BA169884202D34FF001082E
:100BF00011E0211D0948006800F032FC0BE0BE4204
:100C000004D2BD4202D34FF0010804E0211D044884
:100C1000006800F025FC4046BDE8F0814C00002053
:100C20004800002070B5054600F040FCA86B08B9EC
:100C3000012400E0002400F04BFC204670BD70B59C
:100C4000054600F033FCA86BE96B884201D1012412
:100C500000E0002400F03CFC204670BDF8B50546DD
:100C60000E4610480068C068C468201D00F0D4FB20
:100C7000E069012811D1A06941192B46324620466E
:100C8000FFF7A4FF48B1002003462A460146009022
:100C9000204601F0D9F8074600BF2046616A884720
:100CA000F8BD00004800002070B586B04DE0039804
:100CB00000284ADB059C606908B9012000E000209B
:100CC00010B9201D00F0A8FB02A800F09FF805460F
:100CD00003980A2837D2DFE800F0090507252732F4
:100CE0000608262800BF00BF00BF00BF0498A26905
:100CF000811803462A462046FFF768FF88B1204640
:100D0000616A8847E06901280BD1002000900498AF
:100D1000A169421800231946204601F095F80646BD
:100D200000BF11E000BF0FE000BF0498A061A06900
:100D300041192B462A462046FFF748FF04E020468B
:100D400000F0D6FB00E000BF00BF002203A904486A
:100D5000006800F023FE0028A9D106B070BD000095
:100D600050000020F8B505460C4600F08DFC6846A2
:100D700000F04CF80646009820BB44B9B54206D8AE
:100D800000F0D0FF31462846FFF768FF1CE03CB179
:100D90000E480068006808B9012000E00020044601
:100DA000A91B22460A48006800F0B0FB00F0BAFF19
:100DB00050B94FF0805007490860BFF34F8FBFF321
:100DC0006F8F01E000F0AEFFF8BD00004C00002086
:100DD0005000002004ED00E00A490968096809B9DB
:100DE000012100E0002121B14FF0FF31064A1160DE
:100DF00006E004490968C968C868034A4168116087
:100E000070470000100000203C00002070B5044630
:100E100000F0B4FE054607480068854204D200F0A1
:100E20000BF80120206001E00020206001480560EF
:100E3000284670BD580000202DE9F84326E01D48E3
:100E40000068C06805681B480068C068C468201D49
:100E500000F0E2FA2046616A8847E069012815D16E
:100E6000A0694619AE4207D966602461211D114868
:100E7000006800F0F5FA09E0002003462A46014622
:100E80000090204600F0E0FF804600BF094800685F
:100E9000006808B9012000E000200028CFD00548F4
:100EA0000768054800680349086003480760BDE813
:100EB000F8830000480000204C00002000BFBF2045
:100EC00080F31188BFF34F8FBFF36F8F00BF00BF58
:100ED000FEE708B500BF6846FFF7C8FD0446204698
:100EE0000099FFF73FFFFFF7DFFEF4E770B5044618
:100EF00000F0DCFA94F9455010E0606A08B901206E
:100F000000E0002038B904F1240000F0CBFE18B155
:100F100000F058FB00E003E0681E45B2002DECDC59
:100F200000BFFF2084F8450000F0D2FA00F0BEFABE
:100F300094F9445010E0206908B9012000E0002035
:100F400048B904F1100000F0ADFE08B100F03AFB22
:100F5000681E45B200E001E0002DECDC00BFFF2080
:100F600084F8440000F0B4FA70BD000070B5044687
:100F7000002504F0070020B104F00700C0F10800CC
:100F8000044400F081FB1248006820B9114820F0A9
:100F900007000F49086010480068204444F2F83107
:100FA000884210D20C48006820440B4909688842E6
:100FB00009D90748006808490968451806480068C3
:100FC00020440549086000F0ADFE284670BD0000D1
:100FD000040000206800002000000020001F4FF0E7
:100FE00080730360001F21F001030360001F054BA5
:100FF000036014380260001F6FF0020303602038A2
:1010000070470000BD0E000810B503460C46194697
:101010005A20414332B1074830F91400404291FB55
:10102000F0F105E00348801F30F9140091FBF0F166
:1010300008B210BDC41E00082DE9F0410446002589
:101040002046FFF771F9461E05E0675DA05D60551B
:10105000A7556D1C761EB542F7DBBDE8F081000098
:1010600010B502462A4B998000BF294B9B8943F05B
:101070008003002BF9D0264B9B8943F04003002BC3
:10108000F3D0002300E05B1C41F28834A342FADB7A
:101090003A231F4CA38000BF1D4B9B8943F0800364
:1010A000002BF9D01A4B9B8943F04003002BF3D05F
:1010B000002300E05B1C41F28834A342FADB0020ED
:1010C00011E0135C124CA38000BF114B9B8943F0CD
:1010D0008003002BF9D0002300E05B1C41F2883430
:1010E000A342FADB401C135C002BEAD12023084CFE
:1010F000A38000BF064B9B8943F04003002BF9D02F
:10110000002300E05B1C41F28834A342FADB10BDEF
:1011100000100140FEB50546002000E0401C4CF2E6
:1011200050318842FADB002417E0002635F914001C
:10113000002800DA0126E1B235F914003246FFF743
:1011400063FF074669463846FFF7F2FA04F1580094
:10115000C1B26846FFF784FF641C032CE5DB0A205C
:101160001049888000BF0F48808940F04000002867
:10117000F9D0002000E0401C41F288318842FADBBF
:101180000D200849888000BF0648808940F0400053
:101190000028F9D0002000E0401C41F2883188424C
:1011A000FADBFEBD00100140754A126842F480521D
:1011B000734B1A60724A143A126842F00102704B83
:1011C000143B1A601A46126842F010021A606D4A07
:1011D000126842F400626B4B1A601A46126842F4BD
:1011E00000521A601A46126842F400421A60664AB7
:1011F000126842F04002644B1A60624A126A634B02
:101200001A43604B1A621A46926842F440629A602E
:101210001A46926842F440529A601A46926842F422
:1012200040429A60584A926842F0C002564B9A6017
:101230001A46526942F008025A61002200E0521C2C
:10124000B2F57A7FFBDB524A128842F40072504BAF
:101250001A801A46128842F480721A801A4612883E
:1012600042F038021A801A46128842F004021A80AC
:101270001A46128842F002021A801A46128842F078
:1012800001021A801A46128842F040021A80002297
:1012900000E0521C4CF250339A42FADB3A4A52694F
:1012A00022F00802384B5A618F22394B9A8100BFD5
:1012B000374A128902F00102002AF9D0344A128911
:1012C00002F08002002AF3D1314A9289D0B2304A2A
:1012D000908100BF2E4A128902F00102002AF9D043
:1012E0002B4A128902F08002002AF3D1284A9289FF
:1012F000D1B23F2905D1274A128842F40042254B3A
:101300001A80214A526942F008021F4B5A6100229A
:1013100000E0521C0A2AFCDB1B4A526922F0080238
:10132000194B5A6120221A4B9A8100BF184A128920
:1013300002F00102002AF9D0154A128902F0800257
:10134000002AF3D1124A9289D0B22722104B9A81F7
:1013500000BF0F4A128902F00102002AF9D00C4A9C
:10136000128902F08002002AF3D1094A9289D0B290
:10137000054A526942F00802034B5A617047000067
:101380004438024000000240001002400000505566
:1013900000300140180C02401C48006840F010006A
:1013A0001A49086019481438006840F002001749CB
:1013B000143908601648006840F400501449086069
:1013C00013482030006840F0E06011492031086087
:1013D0000F480830006840F400500D49083108609B
:1013E000081D006840F48050091D086040F2D320B9
:1013F000084908810846808940F00800888108462D
:10140000808940F4005088817047000044380240D1
:10141000000402400010014001460A69D1E9013090
:101420009860D1E9010358605068884201D188680A
:101430005060002008611068401E106010687047FE
:1014400000F1080141604FF0FF31816000F10801B7
:10145000C160016100210160704700210161704796
:1014600010B502460B685C1C0CB9106907E002F16C
:10147000080000E04068446824689C42FAD9446847
:101480004C604C68A160886041600A611468641C0B
:10149000146010BD42684A6093688B60936859601D
:1014A0009160086103685B1C0360704700BFBF2048
:1014B00080F31188BFF34F8FBFF36F8F00BF0348D6
:1014C0000068401C014908607047000008000020C7
:1014D00006480068401E054908600846006820B9B3
:1014E000002080F3118800BF00BF70470800002073
:1014F0007047000000204FF0E02108618861024839
:1015000048610720086170473F9002002DE9F041D3
:1015100005460E4617462C46FFF7C8FF94F94400CF
:10152000401C10B9002084F8440094F94500401C88
:1015300010B9002084F84500FFF7CAFFA06B28B956
:101540003A46314604F1240000F052F82046FFF7F5
:10155000CDFCBDE8F0810000034909680160034942
:10156000096841607047000034000020200000201E
:101570001CB500220621052000F0E2F807490860AA
:101580000AE06846FFF78CF800231A4669460348CC
:10159000006800F033F900BFF3E700005C000020B2
:1015A0001CB50BE0002269460548006800F0F6F91A
:1015B000012802D16846FFF7ADFD00BFF2E7000049
:1015C0005C000020012001490860704730000020C5
:1015D00070B505460C460548016818312846FFF7E6
:1015E0003FFF01212046FFF7FDF870BD0C000020F1
:1015F00070B506460D461446064801681831304657
:10160000FFF748FF0CB14FF0FF3521462846FFF7A2
:10161000E9F870BD0C0000201CB5144800210B46F1
:101620008022CDE9001012A1134800F067FA0446A9
:10163000012C02D100F0EAFB0446012C14D100BFBA
:10164000BF2080F31188BFF34F8FBFF36F8F00BFB0
:101650004FF0FF3009490860012009490860002067
:101660000849086000F048F81CBD00004000002058
:1016700049444C4500000000950A00083C00002049
:10168000280000202000002002480068401C01497A
:1016900008607047440000201248006818B101201B
:1016A000114908601DE000200F4908600F480068DC
:1016B000B0FA80F0C0F11F0101EB81020C4B03EB8B
:1016C000820042685268426000F108024368934217
:1016D00002D14268526842604268D268054B1A6083
:1016E00000BF70474400002030000020240000208C
:1016F000604400200C00002010B50E48006840F443
:101700007F000C4908600846006840F07F40086090
:10171000FFF7F0FE002008490860FEF7A9FD074822
:10172000006840F0404005490860FEF78DFD00204C
:1017300010BD000020ED00E00800002034EF00E0C4
:101740002DE9F84307460D4690460DB9002601E005
:1017500007FB05F606F14800FFF708FC04464CB10C
:10176000A14609F1480943464A46294638460094AD
:10177000FFF7A4F92046BDE8F883000070B50546E0
:101780000E462C46FFF792FED4E90F12206801FBAB
:101790000200A0600020A06320686060E06B401E33
:1017A000226C216800FB0211E160FF2084F84400F4
:1017B00084F845009EB9206908B9012000E00020A6
:1017C000A8B904F1100000F06DFA80B14FF080501C
:1017D00009490860BFF34F8FBFF36F8F07E004F133
:1017E0001000FFF72DFE04F12400FFF729FEFFF79C
:1017F0006FFE012070BD000004ED00E02DE9FF4305
:1018000083B0074688461D464FF000093C4600BF9E
:10181000FFF74CFEA06BE16B884201D3022D28D16B
:101820002A4641462046FFF7E2F80646606A08B9B4
:10183000012000E0002068B904F1240000F032FA31
:1018400088B14FF0805032490860BFF34F8FBFF32B
:101850006F8F08E03EB14FF080502D490860BFF314
:101860004F8FBFF36F8FFFF733FE012007B0BDE846
:10187000F083059818B9FFF72BFE0020F6E7B9F1C1
:10188000000F04D101A8FFF767FE4FF00109FFF731
:101890001FFEFFF7F9FEFFF709FE94F94400401C14
:1018A00010B9002084F8440094F94500401C10B998
:1018B000002084F84500FFF70BFE05A901A800F001
:1018C000EFF8F0B92046FFF7BAF9A0B104F1100023
:1018D0000599FFF77DFE2046FFF708FB00F022FA8E
:1018E000002895D14FF0805009490860BFF34F8F11
:1018F000BFF36F8F8CE72046FFF7F8FA00F012FA7B
:1019000086E72046FFF7F2FA00F00CFA0020ADE778
:1019100004ED00E02DE9F05F05468A4616461F46B5
:101920002C4600BFBF21EFF3118081F31188BFF374
:101930004F8FBFF36F8F00BF8146A06BE16B884272
:1019400001D3022F20D194F945B03A4651462046A2
:10195000FFF74DF80BF1010070B9606A08B901207A
:1019600000E0002068B904F1240000F09BF940B1C8
:101970003EB10120306004E00BF1010040B284F878
:1019800045004FF0010801E04FF0000800BF89F367
:10199000118800BF4046BDE8F09F00002DE9F741E7
:1019A00083B005460F464FF000082C4600BFFFF7F6
:1019B0007DFDA66BF6B139462046FFF703F8701E91
:1019C000A063206908B9012000E0002060B904F19B
:1019D000100000F067F938B14FF080502F490860CF
:1019E000BFF34F8FBFF36F8FFFF772FD012006B07B
:1019F000BDE8F081059818B9FFF76AFD0020F6E709
:101A0000B8F1000F04D101A8FFF7A6FD4FF00108BF
:101A1000FFF75EFDFFF738FEFFF748FD94F944003D
:101A2000401C10B9002084F8440094F94500401C83
:101A300010B9002084F84500FFF74AFD05A901A868
:101A400000F02EF8F0B92046FFF7ECF8A0B104F151
:101A500024000599FFF7BCFD2046FFF747FA00F088
:101A600061F90028A3D14FF080500C490860BFF302
:101A70004F8FBFF36F8F9AE72046FFF737FA00F0DA
:101A800051F994E72046FFF731FA00F04BF9204670
:101A9000FFF7C8F800288AD00020A8E704ED00E08E
:101AA00070B506460C46FFF701FD124802687068E3
:101AB000131A2068401C08B9002517E00E49306849
:101AC0000968884204D07068904201D801250DE071
:101AD0002068984207D92068C01A20603046FFF776
:101AE0003BFD002502E0002020600125FFF7F0FC0F
:101AF000284670BD20000020340000202DE9FF4F53
:101B000085B0804689461746DDE912ABB800FFF77D
:101B10002DFA064656B14C20FFF728FA04460CB1C0
:101B2000266304E03046FFF7E3FC00E000247CB1CC
:101B30000020CDE900ABCDE902403A464946404697
:101B4000089BFEF7CEFF2046FEF798FE012501E038
:101B50004FF0FF35284609B0BDE8F08F0549096808
:101B600009B9012005E00449096809B9022000E02B
:101B70000020704728000020440000200149086828
:101B800070470000200000202DE9F04100273A486E
:101B90000068002863D139480068451C3748056053
:101BA0008DB93748D0F8008036480068344908605D
:101BB0003448C0F8008034480068401C324908604E
:101BC000FFF70AF900BF3148006885423BD300BFE8
:101BD0002B480068006808B9012000E0002020B10F
:101BE0004FF0FF30294908602CE025480068C068A4
:101BF000C4686668B54202D22448066022E0201D0F
:101C0000FFF70AFCA06A18B104F11800FFF704FC02
:101C100094F82C10012088401D49096808431C498C
:101C20000860E16A01EB81011A4A02EB8100211D83
:101C3000FFF730FC1849E06A0968C96A8842C7D3CF
:101C40000127C5E700BF14480068C06A00EB8000A8
:101C5000104951F82000012800D9012704E00F485D
:101C60000068401C0D4908600D48006800B101275C
:101C70003846BDE8F081000044000020200000202C
:101C80001000002014000020340000203C00002040
:101C900024000020604400200C0000202C000020C4
:101CA0003000002070B50646F068C46804F11800E2
:101CB000FFF7B2FB15480068A8B9201DFFF7ACFB81
:101CC00094F82C10012088401149096808431049F4
:101CD0000860E16A01EB81010E4A02EB8100211DDF
:101CE000FFF7D8FB04E004F118010B48FFF7D2FB23
:101CF0000A49E06A0968C96A884204D901250120B5
:101D00000749086000E00025284670BD4400002017
:101D10002400002060440020C44400200C00002067
:101D20003000002070B500240026FFF7BFFB2E48CE
:101D30000068401E2C4908600846006800284FD102
:101D40002A48006800284BD024E02948C068C468AD
:101D500004F11800FFF760FB201DFFF75DFB94F80E
:101D60002C10012088402349096808432149086054
:101D7000E16A01EB8101204A02EB8100211DFFF79E
:101D800089FB1E49E06A0968C96A884202D30120BA
:101D90001B4908601648006808B9012000E00020CF
:101DA0000028D2D00CB1FFF717F81648056865B1C6
:101DB00000BFFFF7E9FE10B10120114908606D1E58
:101DC000002DF6D100200F4908600D48006838B199
:101DD000012630070C490860BFF34F8FBFF36F8FA8
:101DE000FFF776FB304670BD440000201C00002049
:101DF000C444002024000020604400200C00002087
:101E0000300000202C00002004ED00E01CB5002470
:101E1000FEF78EFD0748006850B1074804210023F3
:101E20002022CDE9001005A10648FFF767FE044611
:101E300020461CBD5000002054000020546D72202C
:101E400053766300D30E00082DE9FE4305460C4689
:101E500016461F46DDF828804FF000091448006838
:101E600010B3009401960295062C15DAFFF776FE62
:101E7000022808D10023424669460D480068FFF752
:101E8000BDFC814610E000231A46694608480068F8
:101E9000FFF7B4FC814607E000233A466946044850
:101EA0000068FFF737FD81464846BDE8FE83000025
:101EB000500000204FF04070E1EE100A7047D8400B
:101EC000D8400A4108BCFCBDF0BF0000EC1E000871
:101ED0000000002060000000C40100084C1F000842
:101EE00060000020504B0000E001000800000000EE
:101EF00000000000AAAAAAAA00000000000000003A
:101F000000000000000000000000000000000000D1
:101F100000000000000000000000000000000000C1
:101F200000000000000000000000000000000000B1
:101F300000000000000000000000000000000000A1
:0C1F400000000000000000000000000095
:040000050800018965
:00000001FF
